{
  "_format": "hh-sol-artifact-1",
  "contractName": "DegenToken",
  "sourceName": "contracts/DegenToken.sol",
  "abi": [
    {
      "inputs": [],
      "stateMutability": "nonpayable",
      "type": "constructor"
    },
    {
      "anonymous": false,
      "inputs": [
        {
          "indexed": true,
          "internalType": "address",
          "name": "owner",
          "type": "address"
        },
        {
          "indexed": true,
          "internalType": "address",
          "name": "spender",
          "type": "address"
        },
        {
          "indexed": false,
          "internalType": "uint256",
          "name": "value",
          "type": "uint256"
        }
      ],
      "name": "Approval",
      "type": "event"
    },
    {
      "anonymous": false,
      "inputs": [
        {
          "indexed": true,
          "internalType": "address",
          "name": "previousOwner",
          "type": "address"
        },
        {
          "indexed": true,
          "internalType": "address",
          "name": "newOwner",
          "type": "address"
        }
      ],
      "name": "OwnershipTransferred",
      "type": "event"
    },
    {
      "anonymous": false,
      "inputs": [
        {
          "indexed": true,
          "internalType": "address",
          "name": "from",
          "type": "address"
        },
        {
          "indexed": true,
          "internalType": "address",
          "name": "to",
          "type": "address"
        },
        {
          "indexed": false,
          "internalType": "uint256",
          "name": "value",
          "type": "uint256"
        }
      ],
      "name": "Transfer",
      "type": "event"
    },
    {
      "inputs": [
        {
          "internalType": "address",
          "name": "owner",
          "type": "address"
        },
        {
          "internalType": "address",
          "name": "spender",
          "type": "address"
        }
      ],
      "name": "allowance",
      "outputs": [
        {
          "internalType": "uint256",
          "name": "",
          "type": "uint256"
        }
      ],
      "stateMutability": "view",
      "type": "function"
    },
    {
      "inputs": [
        {
          "internalType": "address",
          "name": "spender",
          "type": "address"
        },
        {
          "internalType": "uint256",
          "name": "amount",
          "type": "uint256"
        }
      ],
      "name": "approve",
      "outputs": [
        {
          "internalType": "bool",
          "name": "",
          "type": "bool"
        }
      ],
      "stateMutability": "nonpayable",
      "type": "function"
    },
    {
      "inputs": [
        {
          "internalType": "address",
          "name": "account",
          "type": "address"
        }
      ],
      "name": "balanceOf",
      "outputs": [
        {
          "internalType": "uint256",
          "name": "",
          "type": "uint256"
        }
      ],
      "stateMutability": "view",
      "type": "function"
    },
    {
      "inputs": [
        {
          "internalType": "uint256",
          "name": "amount",
          "type": "uint256"
        }
      ],
      "name": "burn",
      "outputs": [],
      "stateMutability": "nonpayable",
      "type": "function"
    },
    {
      "inputs": [
        {
          "internalType": "address",
          "name": "account",
          "type": "address"
        },
        {
          "internalType": "uint256",
          "name": "amount",
          "type": "uint256"
        }
      ],
      "name": "burnFrom",
      "outputs": [],
      "stateMutability": "nonpayable",
      "type": "function"
    },
    {
      "inputs": [
        {
          "internalType": "uint256",
          "name": "amount",
          "type": "uint256"
        }
      ],
      "name": "burnTokens",
      "outputs": [],
      "stateMutability": "nonpayable",
      "type": "function"
    },
    {
      "inputs": [
        {
          "internalType": "address",
          "name": "account",
          "type": "address"
        }
      ],
      "name": "checkBalance",
      "outputs": [
        {
          "internalType": "uint256",
          "name": "",
          "type": "uint256"
        }
      ],
      "stateMutability": "view",
      "type": "function"
    },
    {
      "inputs": [],
      "name": "decimals",
      "outputs": [
        {
          "internalType": "uint8",
          "name": "",
          "type": "uint8"
        }
      ],
      "stateMutability": "view",
      "type": "function"
    },
    {
      "inputs": [
        {
          "internalType": "address",
          "name": "spender",
          "type": "address"
        },
        {
          "internalType": "uint256",
          "name": "subtractedValue",
          "type": "uint256"
        }
      ],
      "name": "decreaseAllowance",
      "outputs": [
        {
          "internalType": "bool",
          "name": "",
          "type": "bool"
        }
      ],
      "stateMutability": "nonpayable",
      "type": "function"
    },
    {
      "inputs": [
        {
          "internalType": "uint256",
          "name": "weaponId",
          "type": "uint256"
        }
      ],
      "name": "getWeapon",
      "outputs": [
        {
          "internalType": "string",
          "name": "name",
          "type": "string"
        },
        {
          "internalType": "uint256",
          "name": "price",
          "type": "uint256"
        },
        {
          "internalType": "uint256",
          "name": "quantity",
          "type": "uint256"
        }
      ],
      "stateMutability": "view",
      "type": "function"
    },
    {
      "inputs": [
        {
          "internalType": "address",
          "name": "spender",
          "type": "address"
        },
        {
          "internalType": "uint256",
          "name": "addedValue",
          "type": "uint256"
        }
      ],
      "name": "increaseAllowance",
      "outputs": [
        {
          "internalType": "bool",
          "name": "",
          "type": "bool"
        }
      ],
      "stateMutability": "nonpayable",
      "type": "function"
    },
    {
      "inputs": [
        {
          "internalType": "address",
          "name": "to",
          "type": "address"
        },
        {
          "internalType": "uint256",
          "name": "amount",
          "type": "uint256"
        }
      ],
      "name": "mint",
      "outputs": [],
      "stateMutability": "nonpayable",
      "type": "function"
    },
    {
      "inputs": [],
      "name": "name",
      "outputs": [
        {
          "internalType": "string",
          "name": "",
          "type": "string"
        }
      ],
      "stateMutability": "view",
      "type": "function"
    },
    {
      "inputs": [],
      "name": "owner",
      "outputs": [
        {
          "internalType": "address",
          "name": "",
          "type": "address"
        }
      ],
      "stateMutability": "view",
      "type": "function"
    },
    {
      "inputs": [
        {
          "internalType": "uint256",
          "name": "weaponId",
          "type": "uint256"
        }
      ],
      "name": "redeem",
      "outputs": [],
      "stateMutability": "nonpayable",
      "type": "function"
    },
    {
      "inputs": [],
      "name": "renounceOwnership",
      "outputs": [],
      "stateMutability": "nonpayable",
      "type": "function"
    },
    {
      "inputs": [],
      "name": "symbol",
      "outputs": [
        {
          "internalType": "string",
          "name": "",
          "type": "string"
        }
      ],
      "stateMutability": "view",
      "type": "function"
    },
    {
      "inputs": [],
      "name": "totalSupply",
      "outputs": [
        {
          "internalType": "uint256",
          "name": "",
          "type": "uint256"
        }
      ],
      "stateMutability": "view",
      "type": "function"
    },
    {
      "inputs": [
        {
          "internalType": "address",
          "name": "to",
          "type": "address"
        },
        {
          "internalType": "uint256",
          "name": "amount",
          "type": "uint256"
        }
      ],
      "name": "transfer",
      "outputs": [
        {
          "internalType": "bool",
          "name": "",
          "type": "bool"
        }
      ],
      "stateMutability": "nonpayable",
      "type": "function"
    },
    {
      "inputs": [
        {
          "internalType": "address",
          "name": "from",
          "type": "address"
        },
        {
          "internalType": "address",
          "name": "to",
          "type": "address"
        },
        {
          "internalType": "uint256",
          "name": "amount",
          "type": "uint256"
        }
      ],
      "name": "transferFrom",
      "outputs": [
        {
          "internalType": "bool",
          "name": "",
          "type": "bool"
        }
      ],
      "stateMutability": "nonpayable",
      "type": "function"
    },
    {
      "inputs": [
        {
          "internalType": "address",
          "name": "newOwner",
          "type": "address"
        }
      ],
      "name": "transferOwnership",
      "outputs": [],
      "stateMutability": "nonpayable",
      "type": "function"
    },
    {
      "inputs": [
        {
          "internalType": "uint256",
          "name": "",
          "type": "uint256"
        }
      ],
      "name": "weapons",
      "outputs": [
        {
          "internalType": "string",
          "name": "name",
          "type": "string"
        },
        {
          "internalType": "uint256",
          "name": "price",
          "type": "uint256"
        },
        {
          "internalType": "uint256",
          "name": "quantity",
          "type": "uint256"
        }
      ],
      "stateMutability": "view",
      "type": "function"
    }
  ],
  "bytecode": "0x60806040523480156200001157600080fd5b506040518060400160405280600581526020017f446567656e0000000000000000000000000000000000000000000000000000008152506040518060400160405280600381526020017f44474e000000000000000000000000000000000000000000000000000000000081525081600390816200008f919062000728565b508060049081620000a1919062000728565b505050620000c4620000b8620003e060201b60201c565b620003e860201b60201c565b60405180606001604052806040518060400160405280600c81526020017f4275737465722053776f7264000000000000000000000000000000000000000081525081526020016102bc8152602001600381525060066000600581106200012f576200012e6200080f565b5b6003020160008201518160000190816200014a919062000728565b50602082015181600101556040820151816002015590505060405180606001604052806040518060400160405280600d81526020017f447261676f6e20536c617965720000000000000000000000000000000000000081525081526020016103e8815260200160028152506006600160058110620001cd57620001cc6200080f565b5b600302016000820151816000019081620001e8919062000728565b50602082015181600101556040820151816002015590505060405180606001604052806040518060400160405280600f81526020017f426c61646573206f66204368616f73000000000000000000000000000000000081525081526020016113888152602001600681525060066002600581106200026b576200026a6200080f565b5b60030201600082015181600001908162000286919062000728565b50602082015181600101556040820151816002015590505060405180606001604052806040518060400160405280600881526020017f4b6579626c61646500000000000000000000000000000000000000000000000081525081526020016101c28152602001600a81525060066003600581106200030957620003086200080f565b5b60030201600082015181600001908162000324919062000728565b50602082015181600101556040820151816002015590505060405180606001604052806040518060400160405280600b81526020017f47756e64616d2053756974000000000000000000000000000000000000000000815250815260200161270f815260200160018152506006600460058110620003a757620003a66200080f565b5b600302016000820151816000019081620003c2919062000728565b5060208201518160010155604082015181600201559050506200083e565b600033905090565b6000600560009054906101000a900473ffffffffffffffffffffffffffffffffffffffff16905081600560006101000a81548173ffffffffffffffffffffffffffffffffffffffff021916908373ffffffffffffffffffffffffffffffffffffffff1602179055508173ffffffffffffffffffffffffffffffffffffffff168173ffffffffffffffffffffffffffffffffffffffff167f8be0079c531659141344cd1fd0a4f28419497f9722a3daafe3b4186f6b6457e060405160405180910390a35050565b600081519050919050565b7f4e487b7100000000000000000000000000000000000000000000000000000000600052604160045260246000fd5b7f4e487b7100000000000000000000000000000000000000000000000000000000600052602260045260246000fd5b600060028204905060018216806200053057607f821691505b602082108103620005465762000545620004e8565b5b50919050565b60008190508160005260206000209050919050565b60006020601f8301049050919050565b600082821b905092915050565b600060088302620005b07fffffffffffffffffffffffffffffffffffffffffffffffffffffffffffffffff8262000571565b620005bc868362000571565b95508019841693508086168417925050509392505050565b6000819050919050565b6000819050919050565b60006200060962000603620005fd84620005d4565b620005de565b620005d4565b9050919050565b6000819050919050565b6200062583620005e8565b6200063d620006348262000610565b8484546200057e565b825550505050565b600090565b6200065462000645565b620006618184846200061a565b505050565b5b8181101562000689576200067d6000826200064a565b60018101905062000667565b5050565b601f821115620006d857620006a2816200054c565b620006ad8462000561565b81016020851015620006bd578190505b620006d5620006cc8562000561565b83018262000666565b50505b505050565b600082821c905092915050565b6000620006fd60001984600802620006dd565b1980831691505092915050565b6000620007188383620006ea565b9150826002028217905092915050565b6200073382620004ae565b67ffffffffffffffff8111156200074f576200074e620004b9565b5b6200075b825462000517565b620007688282856200068d565b600060209050601f831160018114620007a057600084156200078b578287015190505b6200079785826200070a565b86555062000807565b601f198416620007b0866200054c565b60005b82811015620007da57848901518255600182019150602085019450602081019050620007b3565b86831015620007fa5784890151620007f6601f891682620006ea565b8355505b6001600288020188555050505b505050505050565b7f4e487b7100000000000000000000000000000000000000000000000000000000600052603260045260246000fd5b612162806200084e6000396000f3fe608060405234801561001057600080fd5b50600436106101425760003560e01c806370a08231116100b85780639e41b73f1161007c5780639e41b73f14610379578063a457c2d7146103ab578063a9059cbb146103db578063db006a751461040b578063dd62ed3e14610427578063f2fde38b1461045757610142565b806370a08231146102e7578063715018a61461031757806379cc6790146103215780638da5cb5b1461033d57806395d89b411461035b57610142565b8063395093511161010a578063395093511461020157806340c10f191461023157806342966c681461024d578063555e73c8146102695780635f5152261461029b5780636d1b229d146102cb57610142565b806306fdde0314610147578063095ea7b31461016557806318160ddd1461019557806323b872dd146101b3578063313ce567146101e3575b600080fd5b61014f610473565b60405161015c9190611575565b60405180910390f35b61017f600480360381019061017a9190611630565b610505565b60405161018c919061168b565b60405180910390f35b61019d610528565b6040516101aa91906116b5565b60405180910390f35b6101cd60048036038101906101c891906116d0565b610532565b6040516101da919061168b565b60405180910390f35b6101eb610561565b6040516101f8919061173f565b60405180910390f35b61021b60048036038101906102169190611630565b61056a565b604051610228919061168b565b60405180910390f35b61024b60048036038101906102469190611630565b6105a1565b005b6102676004803603810190610262919061175a565b6105b7565b005b610283600480360381019061027e919061175a565b6105cb565b60405161029293929190611787565b60405180910390f35b6102b560048036038101906102b091906117c5565b610683565b6040516102c291906116b5565b60405180910390f35b6102e560048036038101906102e0919061175a565b610695565b005b61030160048036038101906102fc91906117c5565b6106a2565b60405161030e91906116b5565b60405180910390f35b61031f6106ea565b005b61033b60048036038101906103369190611630565b6106fe565b005b61034561071e565b6040516103529190611801565b60405180910390f35b610363610748565b6040516103709190611575565b60405180910390f35b610393600480360381019061038e919061175a565b6107da565b6040516103a293929190611787565b60405180910390f35b6103c560048036038101906103c09190611630565b6108e6565b6040516103d2919061168b565b60405180910390f35b6103f560048036038101906103f09190611630565b61095d565b604051610402919061168b565b60405180910390f35b6104256004803603810190610420919061175a565b610974565b005b610441600480360381019061043c919061181c565b610a97565b60405161044e91906116b5565b60405180910390f35b610471600480360381019061046c91906117c5565b610b1e565b005b6060600380546104829061188b565b80601f01602080910402602001604051908101604052809291908181526020018280546104ae9061188b565b80156104fb5780601f106104d0576101008083540402835291602001916104fb565b820191906000526020600020905b8154815290600101906020018083116104de57829003601f168201915b5050505050905090565b600080610510610ba1565b905061051d818585610ba9565b600191505092915050565b6000600254905090565b60008061053d610ba1565b905061054a858285610d72565b610555858585610dfe565b60019150509392505050565b60006012905090565b600080610575610ba1565b90506105968185856105878589610a97565b61059191906118eb565b610ba9565b600191505092915050565b6105a9611074565b6105b382826110f2565b5050565b6105c86105c2610ba1565b82611248565b50565b600681600581106105db57600080fd5b600302016000915090508060000180546105f49061188b565b80601f01602080910402602001604051908101604052809291908181526020018280546106209061188b565b801561066d5780601f106106425761010080835404028352916020019161066d565b820191906000526020600020905b81548152906001019060200180831161065057829003601f168201915b5050505050908060010154908060020154905083565b600061068e826106a2565b9050919050565b61069f3382611248565b50565b60008060008373ffffffffffffffffffffffffffffffffffffffff1673ffffffffffffffffffffffffffffffffffffffff168152602001908152602001600020549050919050565b6106f2611074565b6106fc6000611415565b565b6107108261070a610ba1565b83610d72565b61071a8282611248565b5050565b6000600560009054906101000a900473ffffffffffffffffffffffffffffffffffffffff16905090565b6060600480546107579061188b565b80601f01602080910402602001604051908101604052809291908181526020018280546107839061188b565b80156107d05780601f106107a5576101008083540402835291602001916107d0565b820191906000526020600020905b8154815290600101906020018083116107b357829003601f168201915b5050505050905090565b606060008060058410610822576040517f08c379a00000000000000000000000000000000000000000000000000000000081526004016108199061196b565b60405180910390fd5b6000600685600581106108385761083761198b565b5b60030201905080600001816001015482600201548280546108589061188b565b80601f01602080910402602001604051908101604052809291908181526020018280546108849061188b565b80156108d15780601f106108a6576101008083540402835291602001916108d1565b820191906000526020600020905b8154815290600101906020018083116108b457829003601f168201915b50505050509250935093509350509193909250565b6000806108f1610ba1565b905060006108ff8286610a97565b905083811015610944576040517f08c379a000000000000000000000000000000000000000000000000000000000815260040161093b90611a2c565b60405180910390fd5b6109518286868403610ba9565b60019250505092915050565b600061096a338484610dfe565b6001905092915050565b600581106109b7576040517f08c379a00000000000000000000000000000000000000000000000000000000081526004016109ae9061196b565b60405180910390fd5b6000600682600581106109cd576109cc61198b565b5b6003020190506000816002015411610a1a576040517f08c379a0000000000000000000000000000000000000000000000000000000008152600401610a1190611a98565b60405180910390fd5b8060010154610a28336106a2565b1015610a69576040517f08c379a0000000000000000000000000000000000000000000000000000000008152600401610a6090611b04565b60405180910390fd5b610a77338260010154611248565b6001816002016000828254610a8c9190611b24565b925050819055505050565b6000600160008473ffffffffffffffffffffffffffffffffffffffff1673ffffffffffffffffffffffffffffffffffffffff16815260200190815260200160002060008373ffffffffffffffffffffffffffffffffffffffff1673ffffffffffffffffffffffffffffffffffffffff16815260200190815260200160002054905092915050565b610b26611074565b600073ffffffffffffffffffffffffffffffffffffffff168173ffffffffffffffffffffffffffffffffffffffff1603610b95576040517f08c379a0000000000000000000000000000000000000000000000000000000008152600401610b8c90611bca565b60405180910390fd5b610b9e81611415565b50565b600033905090565b600073ffffffffffffffffffffffffffffffffffffffff168373ffffffffffffffffffffffffffffffffffffffff1603610c18576040517f08c379a0000000000000000000000000000000000000000000000000000000008152600401610c0f90611c5c565b60405180910390fd5b600073ffffffffffffffffffffffffffffffffffffffff168273ffffffffffffffffffffffffffffffffffffffff1603610c87576040517f08c379a0000000000000000000000000000000000000000000000000000000008152600401610c7e90611cee565b60405180910390fd5b80600160008573ffffffffffffffffffffffffffffffffffffffff1673ffffffffffffffffffffffffffffffffffffffff16815260200190815260200160002060008473ffffffffffffffffffffffffffffffffffffffff1673ffffffffffffffffffffffffffffffffffffffff168152602001908152602001600020819055508173ffffffffffffffffffffffffffffffffffffffff168373ffffffffffffffffffffffffffffffffffffffff167f8c5be1e5ebec7d5bd14f71427d1e84f3dd0314c0f7b2291e5b200ac8c7c3b92583604051610d6591906116b5565b60405180910390a3505050565b6000610d7e8484610a97565b90507fffffffffffffffffffffffffffffffffffffffffffffffffffffffffffffffff8114610df85781811015610dea576040517f08c379a0000000000000000000000000000000000000000000000000000000008152600401610de190611d5a565b60405180910390fd5b610df78484848403610ba9565b5b50505050565b600073ffffffffffffffffffffffffffffffffffffffff168373ffffffffffffffffffffffffffffffffffffffff1603610e6d576040517f08c379a0000000000000000000000000000000000000000000000000000000008152600401610e6490611dec565b60405180910390fd5b600073ffffffffffffffffffffffffffffffffffffffff168273ffffffffffffffffffffffffffffffffffffffff1603610edc576040517f08c379a0000000000000000000000000000000000000000000000000000000008152600401610ed390611e7e565b60405180910390fd5b610ee78383836114db565b60008060008573ffffffffffffffffffffffffffffffffffffffff1673ffffffffffffffffffffffffffffffffffffffff16815260200190815260200160002054905081811015610f6d576040517f08c379a0000000000000000000000000000000000000000000000000000000008152600401610f6490611f10565b60405180910390fd5b8181036000808673ffffffffffffffffffffffffffffffffffffffff1673ffffffffffffffffffffffffffffffffffffffff16815260200190815260200160002081905550816000808573ffffffffffffffffffffffffffffffffffffffff1673ffffffffffffffffffffffffffffffffffffffff168152602001908152602001600020600082825401925050819055508273ffffffffffffffffffffffffffffffffffffffff168473ffffffffffffffffffffffffffffffffffffffff167fddf252ad1be2c89b69c2b068fc378daa952ba7f163c4a11628f55a4df523b3ef8460405161105b91906116b5565b60405180910390a361106e8484846114e0565b50505050565b61107c610ba1565b73ffffffffffffffffffffffffffffffffffffffff1661109a61071e565b73ffffffffffffffffffffffffffffffffffffffff16146110f0576040517f08c379a00000000000000000000000000000000000000000000000000000000081526004016110e790611f7c565b60405180910390fd5b565b600073ffffffffffffffffffffffffffffffffffffffff168273ffffffffffffffffffffffffffffffffffffffff1603611161576040517f08c379a000000000000000000000000000000000000000000000000000000000815260040161115890611fe8565b60405180910390fd5b61116d600083836114db565b806002600082825461117f91906118eb565b92505081905550806000808473ffffffffffffffffffffffffffffffffffffffff1673ffffffffffffffffffffffffffffffffffffffff168152602001908152602001600020600082825401925050819055508173ffffffffffffffffffffffffffffffffffffffff16600073ffffffffffffffffffffffffffffffffffffffff167fddf252ad1be2c89b69c2b068fc378daa952ba7f163c4a11628f55a4df523b3ef8360405161123091906116b5565b60405180910390a3611244600083836114e0565b5050565b600073ffffffffffffffffffffffffffffffffffffffff168273ffffffffffffffffffffffffffffffffffffffff16036112b7576040517f08c379a00000000000000000000000000000000000000000000000000000000081526004016112ae9061207a565b60405180910390fd5b6112c3826000836114db565b60008060008473ffffffffffffffffffffffffffffffffffffffff1673ffffffffffffffffffffffffffffffffffffffff16815260200190815260200160002054905081811015611349576040517f08c379a00000000000000000000000000000000000000000000000000000000081526004016113409061210c565b60405180910390fd5b8181036000808573ffffffffffffffffffffffffffffffffffffffff1673ffffffffffffffffffffffffffffffffffffffff1681526020019081526020016000208190555081600260008282540392505081905550600073ffffffffffffffffffffffffffffffffffffffff168373ffffffffffffffffffffffffffffffffffffffff167fddf252ad1be2c89b69c2b068fc378daa952ba7f163c4a11628f55a4df523b3ef846040516113fc91906116b5565b60405180910390a3611410836000846114e0565b505050565b6000600560009054906101000a900473ffffffffffffffffffffffffffffffffffffffff16905081600560006101000a81548173ffffffffffffffffffffffffffffffffffffffff021916908373ffffffffffffffffffffffffffffffffffffffff1602179055508173ffffffffffffffffffffffffffffffffffffffff168173ffffffffffffffffffffffffffffffffffffffff167f8be0079c531659141344cd1fd0a4f28419497f9722a3daafe3b4186f6b6457e060405160405180910390a35050565b505050565b505050565b600081519050919050565b600082825260208201905092915050565b60005b8381101561151f578082015181840152602081019050611504565b60008484015250505050565b6000601f19601f8301169050919050565b6000611547826114e5565b61155181856114f0565b9350611561818560208601611501565b61156a8161152b565b840191505092915050565b6000602082019050818103600083015261158f818461153c565b905092915050565b600080fd5b600073ffffffffffffffffffffffffffffffffffffffff82169050919050565b60006115c78261159c565b9050919050565b6115d7816115bc565b81146115e257600080fd5b50565b6000813590506115f4816115ce565b92915050565b6000819050919050565b61160d816115fa565b811461161857600080fd5b50565b60008135905061162a81611604565b92915050565b6000806040838503121561164757611646611597565b5b6000611655858286016115e5565b92505060206116668582860161161b565b9150509250929050565b60008115159050919050565b61168581611670565b82525050565b60006020820190506116a0600083018461167c565b92915050565b6116af816115fa565b82525050565b60006020820190506116ca60008301846116a6565b92915050565b6000806000606084860312156116e9576116e8611597565b5b60006116f7868287016115e5565b9350506020611708868287016115e5565b92505060406117198682870161161b565b9150509250925092565b600060ff82169050919050565b61173981611723565b82525050565b60006020820190506117546000830184611730565b92915050565b6000602082840312156117705761176f611597565b5b600061177e8482850161161b565b91505092915050565b600060608201905081810360008301526117a1818661153c565b90506117b060208301856116a6565b6117bd60408301846116a6565b949350505050565b6000602082840312156117db576117da611597565b5b60006117e9848285016115e5565b91505092915050565b6117fb816115bc565b82525050565b600060208201905061181660008301846117f2565b92915050565b6000806040838503121561183357611832611597565b5b6000611841858286016115e5565b9250506020611852858286016115e5565b9150509250929050565b7f4e487b7100000000000000000000000000000000000000000000000000000000600052602260045260246000fd5b600060028204905060018216806118a357607f821691505b6020821081036118b6576118b561185c565b5b50919050565b7f4e487b7100000000000000000000000000000000000000000000000000000000600052601160045260246000fd5b60006118f6826115fa565b9150611901836115fa565b9250828201905080821115611919576119186118bc565b5b92915050565b7f576561706f6e20646f6573206e6f742065786973740000000000000000000000600082015250565b60006119556015836114f0565b91506119608261191f565b602082019050919050565b6000602082019050818103600083015261198481611948565b9050919050565b7f4e487b7100000000000000000000000000000000000000000000000000000000600052603260045260246000fd5b7f45524332303a2064656372656173656420616c6c6f77616e63652062656c6f7760008201527f207a65726f000000000000000000000000000000000000000000000000000000602082015250565b6000611a166025836114f0565b9150611a21826119ba565b604082019050919050565b60006020820190508181036000830152611a4581611a09565b9050919050565b7f576561706f6e206f7574206f662073746f636b00000000000000000000000000600082015250565b6000611a826013836114f0565b9150611a8d82611a4c565b602082019050919050565b60006020820190508181036000830152611ab181611a75565b9050919050565b7f496e73756666696369656e7420746f6b656e7300000000000000000000000000600082015250565b6000611aee6013836114f0565b9150611af982611ab8565b602082019050919050565b60006020820190508181036000830152611b1d81611ae1565b9050919050565b6000611b2f826115fa565b9150611b3a836115fa565b9250828203905081811115611b5257611b516118bc565b5b92915050565b7f4f776e61626c653a206e6577206f776e657220697320746865207a65726f206160008201527f6464726573730000000000000000000000000000000000000000000000000000602082015250565b6000611bb46026836114f0565b9150611bbf82611b58565b604082019050919050565b60006020820190508181036000830152611be381611ba7565b9050919050565b7f45524332303a20617070726f76652066726f6d20746865207a65726f2061646460008201527f7265737300000000000000000000000000000000000000000000000000000000602082015250565b6000611c466024836114f0565b9150611c5182611bea565b604082019050919050565b60006020820190508181036000830152611c7581611c39565b9050919050565b7f45524332303a20617070726f766520746f20746865207a65726f20616464726560008201527f7373000000000000000000000000000000000000000000000000000000000000602082015250565b6000611cd86022836114f0565b9150611ce382611c7c565b604082019050919050565b60006020820190508181036000830152611d0781611ccb565b9050919050565b7f45524332303a20696e73756666696369656e7420616c6c6f77616e6365000000600082015250565b6000611d44601d836114f0565b9150611d4f82611d0e565b602082019050919050565b60006020820190508181036000830152611d7381611d37565b9050919050565b7f45524332303a207472616e736665722066726f6d20746865207a65726f20616460008201527f6472657373000000000000000000000000000000000000000000000000000000602082015250565b6000611dd66025836114f0565b9150611de182611d7a565b604082019050919050565b60006020820190508181036000830152611e0581611dc9565b9050919050565b7f45524332303a207472616e7366657220746f20746865207a65726f206164647260008201527f6573730000000000000000000000000000000000000000000000000000000000602082015250565b6000611e686023836114f0565b9150611e7382611e0c565b604082019050919050565b60006020820190508181036000830152611e9781611e5b565b9050919050565b7f45524332303a207472616e7366657220616d6f756e742065786365656473206260008201527f616c616e63650000000000000000000000000000000000000000000000000000602082015250565b6000611efa6026836114f0565b9150611f0582611e9e565b604082019050919050565b60006020820190508181036000830152611f2981611eed565b9050919050565b7f4f776e61626c653a2063616c6c6572206973206e6f7420746865206f776e6572600082015250565b6000611f666020836114f0565b9150611f7182611f30565b602082019050919050565b60006020820190508181036000830152611f9581611f59565b9050919050565b7f45524332303a206d696e7420746f20746865207a65726f206164647265737300600082015250565b6000611fd2601f836114f0565b9150611fdd82611f9c565b602082019050919050565b6000602082019050818103600083015261200181611fc5565b9050919050565b7f45524332303a206275726e2066726f6d20746865207a65726f2061646472657360008201527f7300000000000000000000000000000000000000000000000000000000000000602082015250565b60006120646021836114f0565b915061206f82612008565b604082019050919050565b6000602082019050818103600083015261209381612057565b9050919050565b7f45524332303a206275726e20616d6f756e7420657863656564732062616c616e60008201527f6365000000000000000000000000000000000000000000000000000000000000602082015250565b60006120f66022836114f0565b91506121018261209a565b604082019050919050565b60006020820190508181036000830152612125816120e9565b905091905056fea26469706673582212204919ff4c990056b081ea07d31000be01cf83eabde86838fd4bff11415ca0cdef64736f6c63430008120033",
  "linkReferences": {},
  "deployedLinkReferences": {}
}